:020000040800F2
:1000000000280020E50A0008890A00088F0A000875
:10001000950A00089B0A0008A10A000800000000D9
:10002000000000000000000000000000A70A000817
:10003000B30A000800000000BF0A0008CB0A00084D
:100040002D0B00082D0B00082D0B00082D0B0008B0
:100050002D0B00082D0B00082D0B00082D0B0008A0
:100060002D0B00082D0B00082D0B00082D0B000890
:100070002D0B00082D0B00082D0B00082D0B000880
:100080002D0B00082D0B00082D0B00082D0B000870
:100090002D0B00082D0B00082D0B00082D0B000860
:1000A0002D0B00082D0B00082D0B00082D0B000850
:1000B0002D0B00082D0B0008000000002D0B000880
:1000C0002D0B000800000000000000002D0B0008B0
:1000D000000000002D0B00082D0B000800000000A0
:1000E0002D0B00082D0B00082D0B00080000000050
:1000F0000000000000000000000000000000000000
:0C01000000000000000000005FF808F1A3
:10010C0010B5054C237833B9044B13B10448AFF345
:10011C0000800123237010BD0C00002000000000A3
:10012C006C19000808B5034B1BB103490348AFF326
:10013C00008008BD00000000100000206C190008B1
:10014C0080B582B000AF786001220221BF4800F078
:10015C00CDFF01220421BD4800F0C8FF0122082177
:10016C00BA4800F0C3FF01221021B84800F0BEFFCE
:10017C0001222021B54800F0B9FF01224021B348EB
:10018C0000F0B4FF01228021B04800F0AFFF7B6883
:10019C00092B00F2818101A252F823F0D101000851
:1001AC001902000861020008A9020008F102000807
:1001BC003903000881030008C90300081104000872
:1001CC005D04000800220221A04800F08FFF0022ED
:1001DC0004219E4800F08AFF002208219B4800F071
:1001EC0085FF00221021994800F080FF0022202179
:1001FC00964800F07BFF00224021944800F076FFE7
:10020C0001228021914800F071FF46E10122022178
:10021C008E4800F06BFF002204218C4800F066FF32
:10022C0000220821894800F061FF01221021874833
:10023C0000F05CFF01222021844800F057FF0122CE
:10024C004021824800F052FF012280217F4800F0BB
:10025C004DFF22E1002202217C4800F047FF0022E2
:10026C0004217A4800F042FF01220821774800F06F
:10027C003DFF00221021754800F038FF002220219C
:10028C00724800F033FF01224021704800F02EFF2D
:10029C00002280216D4800F029FFFEE0002202219F
:1002AC006A4800F023FF00220421684800F01EFF7A
:1002BC0000220821654800F019FF00221021634834
:1002CC0000F014FF01222021604800F00FFF0122F2
:1002DC0040215E4800F00AFF002280215B4800F0BC
:1002EC0005FFDAE001220221584800F0FFFE00224F
:1002FC000421564800F0FAFE00220821534800F071
:10030C00F5FE01221021514800F0F0FE01222021BF
:10031C004E4800F0EBFE002240214C4800F0E6FE77
:10032C0000228021494800F0E1FEB6E000220221C3
:10033C00464800F0DBFE01220421444800F0D6FEC2
:10034C0000220821414800F0D1FE002210213F4834
:10035C0000F0CCFE012220213C4800F0C7FE002218
:10036C0040213A4800F0C2FE00228021374800F0BC
:10037C00BDFE92E000220221344800F0B7FE0122BB
:10038C000421324800F0B2FE002208212F4800F070
:10039C00ADFE002210212D4800F0A8FE00222021E5
:1003AC002A4800F0A3FE00224021284800F09EFEBF
:1003BC0000228021254800F099FE6EE000220221E7
:1003CC00224800F093FE00220421204800F08EFE0B
:1003DC00002208211D4800F089FE012210211B4833
:1003EC0000F084FE01222021184800F07FFE01223B
:1003FC004021164800F07AFE01228021134800F0BB
:10040C0075FE4AE000220221104800F06FFE002227
:10041C0004210E4800F06AFE002208210B4800F06F
:10042C0065FE00221021094800F060FE0022202108
:10043C00064800F05BFE00224021044800F056FE06
:10044C0000228021014800F051FE26E00008014006
:10045C0000220221134800F049FE00220421114819
:10046C0000F044FE002208210E4800F03FFE00225E
:10047C0010210C4800F03AFE01222021094800F01E
:10048C0035FE00224021074800F030FE002280217A
:10049C00044800F02BFE00E000BF00BF0837BD464B
:1004AC0080BD00BF0008014080B582B000AF78600D
:1004BC0001220121AE4800F019FE01220221AC48B4
:1004CC0000F014FE01220421A94800F00FFE0122C5
:1004DC000821A74800F00AFE01221021A44800F0D0
:1004EC0005FE01222021A24800F000FE012240213D
:1004FC009F4800F0FBFD7B68072B00F2338101A2C3
:10050C0052F823F03105000879050008C1050008F0
:10051C00090600085106000899060008E1060008C3
:10052C002907000800220121914800F0DFFD00227C
:10053C0002218F4800F0DAFD002204218C4800F0E3
:10054C00D5FD002208218A4800F0D0FD00221021A0
:10055C00874800F0CBFD00222021854800F0C6FD25
:10056C0001224021824800F0C1FDFCE00122012162
:10057C007F4800F0BBFD002202217D4800F0B6FD53
:10058C00002204217A4800F0B1FD012208217848AC
:10059C0000F0ACFD01221021754800F0A7FD0122EE
:1005AC002021734800F0A2FD01224021704800F088
:1005BC009DFDD8E0002201216D4800F097FD00223E
:1005CC0002216B4800F092FD01220421684800F0E2
:1005DC008DFD00220821664800F088FD00221021C4
:1005EC00634800F083FD01222021614800F07EFD6C
:1005FC00002240215E4800F079FDB4E00022012188
:10060C005B4800F073FD00220221594800F06EFD9A
:10061C0000220421564800F069FD002208215448AC
:10062C0000F064FD01221021514800F05FFD012211
:10063C0020214F4800F05AFD002240214C4800F088
:10064C0055FD90E001220121494800F04FFD0022A8
:10065C000221474800F04AFD00220421444800F0E2
:10066C0045FD01220821424800F040FD01221021E5
:10067C003F4800F03BFD002220213D4800F036FDB4
:10068C00002240213A4800F031FD6CE000220121AB
:10069C00374800F02BFD01220221354800F026FDE1
:1006AC0000220421324800F021FD002208213048AC
:1006BC0000F01CFD012210212D4800F017FD002236
:1006CC0020212B4800F012FD00224021284800F088
:1006DC000DFD48E000220121254800F007FD012214
:1006EC000221234800F002FD00220421204800F0E2
:1006FC00FDFC002208211E4800F0F8FC002210210D
:10070C001B4800F0F3FC00222021194800F0EEFCFD
:10071C0000224021164800F0E9FC24E000220121CF
:10072C00134800F0E3FC00220221114800F0DEFC2B
:10073C00002204210E4800F0D9FC012208210C48AB
:10074C0000F0D4FC01221021094800F0CFFC01225A
:10075C002021074800F0CAFC01224021044800F087
:10076C00C5FC00E000BF00BF0837BD4680BD00BF20
:10077C00000C014080B500AF00F0D4F900F0B6F8E1
:10078C0000F0F0F80420FFF7DBFC0220FFF78CFEF2
:10079C0000224FF48071544800F0A8FC01224FF461
:1007AC000071514800F0A2FC01224FF480614E48C8
:1007BC0000F09CFC01224FF480514B4800F096FC59
:1007CC0001224FF40061484800F090FC00224FF4E5
:1007DC000051454800F08AFC4FF47A7000F004FA9E
:1007EC000320FFF7ADFC0120FFF75EFE4FF47A709B
:1007FC0000F0FAF90220FFF7A3FC0020FFF754FEEB
:10080C004FF47A7000F0F0F90120FFF799FC012009
:10081C00FFF74AFE4FF40051334800F07FFC4FF4D1
:10082C008051314800F07AFC4FF47A7000F0DCF91A
:10083C000020FFF785FC0020FFF736FE4FF47A709E
:10084C0000F0D2F90220FFF77BFC0420FFF72CFE0E
:10085C004FF48071244800F061FC4FF48061224811
:10086C0000F05CFC4FF480511F4800F057FC4FF433
:10087C0000611D4800F052FC4FF47A7000F0B4F99E
:10088C000120FFF75DFC0320FFF70EFE4FF47A709A
:10089C0000F0AAF90020FFF753FC0220FFF704FE3A
:1008AC004FF47A7000F0A0F90120FFF749FC012009
:1008BC00FFF7FAFD4FF480610B4800F02FFC4FF46A
:1008CC000071094800F02AFC4FF47A7000F08CF9A2
:1008DC000020FFF735FC0020FFF7E6FD4FF47A709F
:1008EC0000F082F94EE700BF0008014080B590B0DF
:1008FC0000AF07F1180328220021184601F028F850
:10090C003B1D00221A605A609A60DA601A61022359
:10091C00BB610123BB621023FB6200237B6307F1E5
:10092C001803184600F014FC0346002B01D000F00D
:10093C006DF80F237B600023BB600023FB6000235A
:10094C003B6100237B613B1D0021184600F080FEBB
:10095C000346002B01D000F059F800BF4037BD46CC
:10096C0080BD000080B586B000AF07F108030022FF
:10097C001A605A609A60DA60214B9B69204A43F0F6
:10098C00040393611E4B9B6903F004037B607B683B
:10099C001B4B9B691A4A43F008039361184B9B69E4
:1009AC0003F008033B603B68002243F6FE711548D8
:1009BC0000F09CFB00227F21134800F097FB43F6CC
:1009CC00FE73BB600123FB6000233B6102237B6150
:1009DC0007F1080319460B4800F00EFA7F23BB60A1
:1009EC000123FB6000233B6102237B6107F10803B9
:1009FC001946054800F000FA00BF1837BD4680BD07
:100A0C000010024000080140000C014080B400AF0F
:100A1C0072B600BFFEE7000080B485B000AF154B86
:100A2C009B69144A43F001039361124B9B6903F0D9
:100A3C000103BB60BB680F4BDB690E4A43F080536C
:100A4C00D3610C4BDB6903F080537B607B680A4BF2
:100A5C005B68FB60FB6823F0E063FB60FB6843F0C2
:100A6C008063FB60044AFB68536000BF1437BD46CB
:100A7C0080BC7047001002400000014080B400AF01
:100A8C00FEE780B400AFFEE780B400AFFEE780B4B1
:100A9C0000AFFEE780B400AFFEE780B400AF00BF4C
:100AAC00BD4680BC704780B400AF00BFBD4680BC63
:100ABC00704780B400AF00BFBD4680BC704780B5A6
:100ACC0000AF00F075F800BF80BD80B400AF00BF70
:100ADC00BD4680BC70470000FFF7F7FF0B480C4980
:100AEC000C4A002302E0D458C4500433C4188C427E
:100AFC00F9D3094A094C002301E013600432A242E5
:100B0C00FBD300F001FFFFF735FE7047000000201B
:100B1C000C000020B01900080C0000202C00002054
:100B2C00FEE7000080B500AF084B1B68074A43F096
:100B3C0010031360032000F02BF90F2000F008F8CD
:100B4C00FFF76AFF0023184680BD00BF002002405B
:100B5C0080B582B000AF7860124B1A68124B1B78CC
:100B6C0019464FF47A73B3FBF1F3B2FBF3F3184667
:100B7C0000F035F90346002B01D001230EE07B6811
:100B8C000F2B0AD8002279684FF0FF3000F00BF9D8
:100B9C00064A7B681360002300E0012318460837DF
:100BAC00BD4680BD0000002008000020040000208D
:100BBC0080B400AF054B1B781A46054B1B681344D9
:100BCC00034A136000BFBD4680BC7047080000207C
:100BDC002800002080B400AF024B1B681846BD46AD
:100BEC0080BC70472800002080B584B000AF7860CE
:100BFC00FFF7F0FFB8607B68FB60FB68B3F1FF3F69
:100C0C0005D00A4B1B781A46FB681344FB6000BFE7
:100C1C00FFF7E0FF0246BB68D31AFA689A42F7D88E
:100C2C0000BF00BF1037BD4680BD00BF08000020CC
:100C3C0080B485B000AF78607B6803F00703FB607D
:100C4C000C4BDB68BB60BA684FF6FF031340BB600C
:100C5C00FB681A02BB68134343F0BF6343F40033D1
:100C6C00BB60044ABB68D36000BF1437BD4680BC70
:100C7C00704700BF00ED00E080B400AF044BDB68B0
:100C8C001B0A03F007031846BD4680BC704700BF23
:100C9C0000ED00E080B483B000AF03463960FB7117
:100CAC0097F90730002B0ADB3B68DAB20C4997F94D
:100CBC0007301201D2B20B4483F800230AE03B68E0
:100CCC00DAB20849FB7903F00F03043B1201D2B2EC
:100CDC000B441A7600BF0C37BD4680BC704700BF72
:100CEC0000E100E000ED00E080B489B000AFF860F6
:100CFC00B9607A60FB6803F00703FB61FB69C3F121
:100D0C000703042B28BF0423BB61FB690433062BA8
:100D1C0002D9FB69033B00E000237B614FF0FF32FB
:100D2C00BB6902FA03F3DA43BB681A407B699A4049
:100D3C004FF0FF317B6901FA03F3D9437B680B4019
:100D4C00134318462437BD4680BC704780B582B02B
:100D5C0000AF78607B68013BB3F1807F01D3012346
:100D6C000FE00A4A7B68013B53600F214FF0FF30C4
:100D7C00FFF790FF054B00229A60044B07221A6084
:100D8C00002318460837BD4680BD00BF10E000E0C8
:100D9C0080B582B000AF78607868FFF749FF00BF7C
:100DAC000837BD4680BD80B586B000AF0346B9603C
:100DBC007A60FB7300237B61FFF75EFF78617A68D2
:100DCC00B9687869FFF790FF024697F90F30114622
:100DDC001846FFF75FFF00BF1837BD4680BD80B5D2
:100DEC0082B000AF78607868FFF7B0FF0346184612
:100DFC000837BD4680BD000080B48BB000AF786072
:100E0C00396000237B6200233B6248E101227B6A4C
:100E1C0002FA03F3FB613B681B68FA691340BB6180
:100E2C00BA69FB699A4240F037813B685B68A34A18
:100E3C0093425ED0A14A934275D8A14A934258D0AE
:100E4C009F4A93426FD89F4A934252D09D4A9342F5
:100E5C0069D89D4A93424CD09B4A934263D89B4A93
:100E6C00934246D0994A93425DD8122B2AD8122B22
:100E7C0059D801A252F823F0FF0E0008D90E000831
:100E8C00EB0E00082D0F0008330F0008330F00087D
:100E9C00330F0008330F0008330F0008330F00081E
:100EAC00330F0008330F0008330F0008330F00080E
:100EBC00330F0008330F0008330F0008E10E000851
:100ECC00F50E0008824A934213D02CE03B68DB6895
:100EDC003B6229E03B68DB6804333B6224E03B68FF
:100EEC00DB6808333B621FE03B68DB680C333B621A
:100EFC001AE03B689B68002B02D104233B6213E091
:100F0C003B689B68012B05D108233B627B68FA691F
:100F1C001A6109E008233B627B68FA695A6103E0B5
:100F2C0000233B6200E000BFBB69FF2B01D87B684C
:100F3C0001E07B6804337B61BB69FF2B02D87B6AC1
:100F4C009B0002E07B6A083B9B003B617B691A6853
:100F5C000F213B6901FA03F3DB431A40396A3B6901
:100F6C0001FA03F31A437B691A603B685B6803F070
:100F7C008053002B00F09080564B9B69554A43F0F0
:100F8C0001039361534B9B6903F00103BB60BB6886
:100F9C00514A7B6A9B08023352F82330FB607B6A10
:100FAC0003F003039B000F2202FA03F3DB43FA68FE
:100FBC001340FB607B68494A93420DD07B68484ADA
:100FCC00934207D07B68474A934201D1022304E045
:100FDC00032302E0012300E000237A6A02F00302FB
:100FEC0092009340FA681343FB603B497B6A9B0871
:100FFC000233FA6841F823203B685B6803F48013E2
:10100C00002B06D0384B9A683749BB6913438B6069
:10101C0006E0354B9A68BB69DB43334913408B6060
:10102C003B685B6803F40013002B06D02E4BDA6888
:10103C002D49BB691343CB6006E02B4BDA68BB69C7
:10104C00DB4329491340CB603B685B6803F40033F6
:10105C00002B06D0244B5A682349BB6913434B60C1
:10106C0006E0214B5A68BB69DB431F4913404B60B8
:10107C003B685B6803F48033002B06D01A4B1A686C
:10108C001949BB6913430B6006E0174B1A68BB691F
:10109C00DB43154913400B607B6A01337B623B6871
:1010AC001A687B6A22FA03F3002B7FF4AFAE00BF01
:1010BC0000BF2C37BD4680BC704700BF000032100B
:1010CC00000031100000221000002110000012104E
:1010DC000000111000100240000001400008014007
:1010EC00000C0140001001400004014080B483B0AA
:1010FC0000AF78600B467B8013467B707B78002BAF
:10110C0003D07A887B681A6103E07B881A047B68B9
:10111C001A6100BF0C37BD4680BC704780B485B0E7
:10112C0000AF78600B467B807B68DB68FB607A885D
:10113C00FB6813401A04FB68D9437B880B401A43A5
:10114C007B681A6100BF1437BD4680BC7047000035
:10115C0080B586B000AF78607B68002B01D101238D
:10116C006CE27B681B6803F00103002B00F08780A6
:10117C00924B5B6803F00C03042B0CD08F4B5B6819
:10118C0003F00C03082B12D18C4B5B6803F48033F7
:10119C00B3F5803F0BD1894B1B6803F40033002B54
:1011AC006CD07B685B68002B68D1012346E27B68BE
:1011BC005B68B3F5803F06D1804B1B687F4A43F4D4
:1011CC00803313602EE07B685B68002B0CD17B4B6B
:1011DC001B687A4A23F480331360784B1B68774A78
:1011EC0023F4802313601DE07B685B68B3F5A02FAC
:1011FC000CD1724B1B68714A43F4802313606F4B04
:10120C001B686E4A43F4803313600BE06B4B1B6816
:10121C006A4A23F480331360684B1B68674A23F4D3
:10122C00802313607B685B68002B13D0FFF7D2FC24
:10123C00386108E0FFF7CEFC02463B69D31A642BF9
:10124C0001D90323FAE15D4B1B6803F40033002B37
:10125C00F0D014E0FFF7BEFC386108E0FFF7BAFCF1
:10126C0002463B69D31A642B01D90323E6E1534BA5
:10127C001B6803F40033002BF0D100E000BF7B6847
:10128C001B6803F00203002B63D04C4B5B6803F02C
:10129C000C03002B0BD0494B5B6803F00C03082BA1
:1012AC001CD1464B5B6803F48033002B16D1434BA7
:1012BC001B6803F00203002B05D07B681B69012B14
:1012CC0001D00123BAE13D4B1B6823F0F8027B6887
:1012DC005B69DB00394913430B603AE07B681B699F
:1012EC00002B20D0364B01221A60FFF773FC3861BB
:1012FC0008E0FFF76FFC02463B69D31A022B01D9B9
:10130C0003239BE12D4B1B6803F00203002BF0D051
:10131C002A4B1B6823F0F8027B685B69DB002749CA
:10132C0013430B6015E0264B00221A60FFF752FCAA
:10133C00386108E0FFF74EFC02463B69D31A022BDA
:10134C0001D903237AE11D4B1B6803F00203002B28
:10135C00F0D17B681B6803F00803002B3AD07B6844
:10136C009B69002B19D0174B01221A60FFF732FC36
:10137C00386108E0FFF72EFC02463B69D31A022BBA
:10138C0001D903235AE10D4B5B6A03F00203002BD6
:10139C00F0D0012000F09AFA1CE00A4B00221A60EF
:1013AC00FFF718FC38610FE0FFF714FC02463B69AD
:1013BC00D31A022B08D9032340E100BF00100240CE
:1013CC0000004242800442429E4B5B6A03F00203DF
:1013DC00002BE9D17B681B6803F00403002B00F0A1
:1013EC00A6800023FB75974BDB6903F08053002B21
:1013FC000DD1944BDB69934A43F08053D361914BED
:10140C00DB6903F08053BB60BB680123FB758E4B1B
:10141C001B6803F48073002B18D18B4B1B688A4A12
:10142C0043F480731360FFF7D5FB386108E0FFF7D6
:10143C00D1FB02463B69D31A642B01D90323FDE08F
:10144C00814B1B6803F48073002BF0D07B68DB6846
:10145C00012B06D17B4B1B6A7A4A43F001031362C2
:10146C002DE07B68DB68002B0CD1764B1B6A754A30
:10147C0023F001031362734B1B6A724A23F00403BB
:10148C0013621CE07B68DB68052B0CD16D4B1B6A6F
:10149C006C4A43F0040313626A4B1B6A694A43F0BB
:1014AC00010313620BE0674B1B6A664A23F00103CE
:1014BC001362644B1B6A634A23F0040313627B6858
:1014CC00DB68002B15D0FFF785FB38610AE0FFF7CE
:1014DC0081FB02463B69D31A41F28832934201D90F
:1014EC000323ABE0574B1B6A03F00203002BEED037
:1014FC0014E0FFF76FFB38610AE0FFF76BFB024665
:10150C003B69D31A41F28832934201D9032395E007
:10151C004C4B1B6A03F00203002BEED1FB7D012B1D
:10152C0005D1484BDB69474A23F08053D3617B6874
:10153C00DB69002B00F08180424B5B6803F00C03ED
:10154C00082B61D07B68DB69022B46D13F4B002214
:10155C001A60FFF73FFB386108E0FFF73BFB0246E0
:10156C003B69D31A022B01D9032367E0354B1B6867
:10157C0003F00073002BF0D17B681B6AB3F5803F3E
:10158C0008D1304B5B6823F400327B689B682D4993
:10159C0013434B602B4B5B6823F474127B68196A02
:1015AC007B685B6A0B43274913434B60274B012233
:1015BC001A60FFF70FFB386108E0FFF70BFB0246E0
:1015CC003B69D31A022B01D9032337E01D4B1B684F
:1015DC0003F00073002BF0D02FE01C4B00221A609C
:1015EC00FFF7F8FA386108E0FFF7F4FA02463B69B6
:1015FC00D31A022B01D9032320E0124B1B6803F0F2
:10160C000073002BF0D118E07B68DB69012B01D152
:10161C00012313E00B4B5B68FB60FB6803F4803227
:10162C007B681B6A9A4206D1FB6803F470127B68D4
:10163C005B6A9A4201D0012300E000231846183758
:10164C00BD4680BD00100240007000406000424268
:10165C0080B584B000AF786039607B68002B01D115
:10166C000123D0E06A4B1B6803F007033A689A42E7
:10167C0010D9674B1B6823F0070265493B6813437D
:10168C000B60634B1B6803F007033A689A4201D066
:10169C000123B8E07B681B6803F00203002B20D009
:1016AC007B681B6803F00403002B05D0594B5B6867
:1016BC00584A43F4E06353607B681B6803F00803EB
:1016CC00002B05D0534B5B68524A43F46053536074
:1016DC00504B5B6823F0F0027B689B684D491343C9
:1016EC004B607B681B6803F00103002B40D07B68C8
:1016FC005B68012B07D1474B1B6803F40033002BAD
:10170C0015D101237FE07B685B68022B07D1414B2D
:10171C001B6803F00073002B09D1012373E03D4BD0
:10172C001B6803F00203002B01D101236BE0394B42
:10173C005B6823F003027B685B68364913434B609C
:10174C00FFF748FAF8600AE0FFF744FA0246FB6834
:10175C00D31A41F28832934201D9032353E02D4B23
:10176C005B6803F00C027B685B689B009A42EBD1D0
:10177C00274B1B6803F007033A689A4210D2244B9C
:10178C001B6823F0070222493B6813430B60204B74
:10179C001B6803F007033A689A4201D0012332E038
:1017AC007B681B6803F00403002B08D0194B5B68A3
:1017BC0023F4E0627B68DB68164913434B607B685B
:1017CC001B6803F00803002B09D0124B5B6823F451
:1017DC0060527B681B69DB000E4913434B6000F0C1
:1017EC0021F802460B4B5B681B0903F00F030A49F7
:1017FC00CB5C22FA03F3094A1360094B1B681846A9
:10180C00FFF7A6F9002318461037BD4680BD00BF70
:10181C000020024000100240841900080000002043
:10182C000400002080B487B000AF0023FB600023CD
:10183C00BB6000237B6100237B6000233B611E4B5C
:10184C005B68FB60FB6803F00C03042B02D0082BD5
:10185C0003D027E0194B3B6127E0FB689B0C03F09E
:10186C000F03174AD35C7B60FB6803F48033002BB7
:10187C0010D0114B5B685B0C03F00103114AD35C75
:10188C00BB607B680D4A02FB03F2BB68B2FBF3F34F
:10189C007B6104E07B680C4A02FB03F37B617B6990
:1018AC003B6102E0054B3B6100BF3B6918461C37AE
:1018BC00BD4680BC704700BF0010024000127A0089
:1018CC0094190008A419000800093D0080B485B0E3
:1018DC0000AF78600A4B1B680A4AA2FB03235B0A21
:1018EC007A6802FB03F3FB6000BFFB685A1EFA60C8
:1018FC00002BF9D100BF00BF1437BD4680BC704728
:10190C0000000020D34D621070B500260C4D0D4C1C
:10191C00641BA410A64209D100F022F800260A4D3F
:10192C000A4C641BA410A64205D170BD55F8043BAB
:10193C0098470136EEE755F8043B98470136F2E735
:10194C00A8190008A8190008A8190008AC19000863
:10195C0003460244934200D1704703F8011BF9E798
:10196C00F8B500BFF8BC08BC9E467047F8B500BF80
:08197C00F8BC08BC9E46704750
:10198400000000000000000001020304060708092B
:1019940002030405060708090A0B0C0D0E0F1010AC
:0419A400010200003C
:0419A8003101000801
:0419AC000D01000821
:0C19B00000127A0010000000010000008E
:0400000508000AE500
:00000001FF
